{
  "contractName": "Voting",
  "abi": [
    {
      "anonymous": false,
      "inputs": [
        {
          "indexed": true,
          "internalType": "address",
          "name": "previousOwner",
          "type": "address"
        },
        {
          "indexed": true,
          "internalType": "address",
          "name": "newOwner",
          "type": "address"
        }
      ],
      "name": "OwnershipTransferred",
      "type": "event"
    },
    {
      "anonymous": false,
      "inputs": [
        {
          "indexed": false,
          "internalType": "uint256",
          "name": "proposalId",
          "type": "uint256"
        }
      ],
      "name": "ProposalRegistered",
      "type": "event"
    },
    {
      "anonymous": false,
      "inputs": [
        {
          "indexed": false,
          "internalType": "address",
          "name": "voter",
          "type": "address"
        },
        {
          "indexed": false,
          "internalType": "uint256",
          "name": "proposalId",
          "type": "uint256"
        }
      ],
      "name": "Voted",
      "type": "event"
    },
    {
      "anonymous": false,
      "inputs": [
        {
          "indexed": false,
          "internalType": "address",
          "name": "voterAddress",
          "type": "address"
        }
      ],
      "name": "VoterRegistered",
      "type": "event"
    },
    {
      "anonymous": false,
      "inputs": [
        {
          "indexed": false,
          "internalType": "enum Voting.WorkflowStatus",
          "name": "previousStatus",
          "type": "uint8"
        },
        {
          "indexed": false,
          "internalType": "enum Voting.WorkflowStatus",
          "name": "newStatus",
          "type": "uint8"
        }
      ],
      "name": "WorkflowStatusChange",
      "type": "event"
    },
    {
      "inputs": [],
      "name": "nbVoters",
      "outputs": [
        {
          "internalType": "uint256",
          "name": "",
          "type": "uint256"
        }
      ],
      "stateMutability": "view",
      "type": "function",
      "constant": true
    },
    {
      "inputs": [],
      "name": "owner",
      "outputs": [
        {
          "internalType": "address",
          "name": "",
          "type": "address"
        }
      ],
      "stateMutability": "view",
      "type": "function",
      "constant": true
    },
    {
      "inputs": [],
      "name": "renounceOwnership",
      "outputs": [],
      "stateMutability": "nonpayable",
      "type": "function"
    },
    {
      "inputs": [
        {
          "internalType": "address",
          "name": "newOwner",
          "type": "address"
        }
      ],
      "name": "transferOwnership",
      "outputs": [],
      "stateMutability": "nonpayable",
      "type": "function"
    },
    {
      "inputs": [],
      "name": "winningProposalID",
      "outputs": [
        {
          "internalType": "uint256",
          "name": "",
          "type": "uint256"
        }
      ],
      "stateMutability": "view",
      "type": "function",
      "constant": true
    },
    {
      "inputs": [],
      "name": "workflowStatus",
      "outputs": [
        {
          "internalType": "enum Voting.WorkflowStatus",
          "name": "",
          "type": "uint8"
        }
      ],
      "stateMutability": "view",
      "type": "function",
      "constant": true
    },
    {
      "inputs": [],
      "name": "myself",
      "outputs": [
        {
          "components": [
            {
              "internalType": "bool",
              "name": "isRegistered",
              "type": "bool"
            },
            {
              "internalType": "bool",
              "name": "hasVoted",
              "type": "bool"
            },
            {
              "internalType": "uint256",
              "name": "votedProposalId",
              "type": "uint256"
            }
          ],
          "internalType": "struct Voting.Voter",
          "name": "",
          "type": "tuple"
        }
      ],
      "stateMutability": "view",
      "type": "function",
      "constant": true
    },
    {
      "inputs": [
        {
          "internalType": "address",
          "name": "_addr",
          "type": "address"
        }
      ],
      "name": "getVoter",
      "outputs": [
        {
          "components": [
            {
              "internalType": "bool",
              "name": "isRegistered",
              "type": "bool"
            },
            {
              "internalType": "bool",
              "name": "hasVoted",
              "type": "bool"
            },
            {
              "internalType": "uint256",
              "name": "votedProposalId",
              "type": "uint256"
            }
          ],
          "internalType": "struct Voting.Voter",
          "name": "",
          "type": "tuple"
        }
      ],
      "stateMutability": "view",
      "type": "function",
      "constant": true
    },
    {
      "inputs": [
        {
          "internalType": "uint256",
          "name": "_id",
          "type": "uint256"
        }
      ],
      "name": "getOneProposal",
      "outputs": [
        {
          "components": [
            {
              "internalType": "string",
              "name": "description",
              "type": "string"
            },
            {
              "internalType": "uint256",
              "name": "voteCount",
              "type": "uint256"
            }
          ],
          "internalType": "struct Voting.Proposal",
          "name": "",
          "type": "tuple"
        }
      ],
      "stateMutability": "view",
      "type": "function",
      "constant": true
    },
    {
      "inputs": [],
      "name": "getProposals",
      "outputs": [
        {
          "components": [
            {
              "internalType": "string",
              "name": "description",
              "type": "string"
            },
            {
              "internalType": "uint256",
              "name": "voteCount",
              "type": "uint256"
            }
          ],
          "internalType": "struct Voting.Proposal[]",
          "name": "",
          "type": "tuple[]"
        }
      ],
      "stateMutability": "view",
      "type": "function",
      "constant": true
    },
    {
      "inputs": [
        {
          "internalType": "address",
          "name": "_addr",
          "type": "address"
        }
      ],
      "name": "addVoter",
      "outputs": [],
      "stateMutability": "nonpayable",
      "type": "function"
    },
    {
      "inputs": [
        {
          "internalType": "string",
          "name": "_desc",
          "type": "string"
        }
      ],
      "name": "addProposal",
      "outputs": [],
      "stateMutability": "nonpayable",
      "type": "function"
    },
    {
      "inputs": [
        {
          "internalType": "uint256",
          "name": "_id",
          "type": "uint256"
        }
      ],
      "name": "setVote",
      "outputs": [],
      "stateMutability": "nonpayable",
      "type": "function"
    },
    {
      "inputs": [],
      "name": "startProposalsRegistering",
      "outputs": [],
      "stateMutability": "nonpayable",
      "type": "function"
    },
    {
      "inputs": [],
      "name": "endProposalsRegistering",
      "outputs": [],
      "stateMutability": "nonpayable",
      "type": "function"
    },
    {
      "inputs": [],
      "name": "startVotingSession",
      "outputs": [],
      "stateMutability": "nonpayable",
      "type": "function"
    },
    {
      "inputs": [],
      "name": "endVotingSession",
      "outputs": [],
      "stateMutability": "nonpayable",
      "type": "function"
    },
    {
      "inputs": [],
      "name": "tallyVotes",
      "outputs": [],
      "stateMutability": "nonpayable",
      "type": "function"
    }
  ],
  "bytecode": "0x60806040523480156200001157600080fd5b5062000032620000266200003860201b60201c565b6200004060201b60201c565b62000104565b600033905090565b60008060009054906101000a900473ffffffffffffffffffffffffffffffffffffffff169050816000806101000a81548173ffffffffffffffffffffffffffffffffffffffff021916908373ffffffffffffffffffffffffffffffffffffffff1602179055508173ffffffffffffffffffffffffffffffffffffffff168173ffffffffffffffffffffffffffffffffffffffff167f8be0079c531659141344cd1fd0a4f28419497f9722a3daafe3b4186f6b6457e060405160405180910390a35050565b6127e080620001146000396000f3fe608060405234801561001057600080fd5b50600436106101165760003560e01c8063bdc01431116100a2578063d276fd9311610071578063d276fd931461024b578063d4f50f9814610269578063ee74c67814610299578063f2fde38b146102a3578063f4ab9adf146102bf57610116565b8063bdc01431146101fb578063bfcddbbc14610219578063c7038a4e14610237578063c88af42f1461024157610116565b8063715018a6116100e9578063715018a61461017b5780638da5cb5b14610185578063a1edffa2146101a3578063a2788cce146101c1578063a7bfab16146101f157610116565b8063230796ae1461011b5780632fdae3c514610137578063378a21781461015357806362564c481461015d575b600080fd5b610135600480360381019061013091906116bb565b6102db565b005b610151600480360381019061014c919061174d565b61060d565b005b61015b610890565b005b610165610976565b6040516101729190611938565b60405180910390f35b610183610b00565b005b61018d610b14565b60405161019a919061199b565b60405180910390f35b6101ab610b3d565b6040516101b89190611a2d565b60405180910390f35b6101db60048036038101906101d691906116bb565b610b50565b6040516101e89190611a85565b60405180910390f35b6101f9610cb7565b005b610203610d9d565b6040516102109190611ab6565b60405180910390f35b610221610da3565b60405161022e9190611ab6565b60405180910390f35b61023f610da9565b005b610249610f24565b005b61025361100a565b6040516102609190611b2e565b60405180910390f35b610283600480360381019061027e9190611b75565b6110a1565b6040516102909190611b2e565b60405180910390f35b6102a16111c9565b005b6102bd60048036038101906102b89190611b75565b6112ae565b005b6102d960048036038101906102d49190611b75565b611331565b005b600560003373ffffffffffffffffffffffffffffffffffffffff1673ffffffffffffffffffffffffffffffffffffffff16815260200190815260200160002060000160009054906101000a900460ff1661036a576040517f08c379a000000000000000000000000000000000000000000000000000000000815260040161036190611bff565b60405180910390fd5b6003600581111561037e5761037d6119b6565b5b600360009054906101000a900460ff1660058111156103a05761039f6119b6565b5b146103e0576040517f08c379a00000000000000000000000000000000000000000000000000000000081526004016103d790611c91565b60405180910390fd5b60011515600560003373ffffffffffffffffffffffffffffffffffffffff1673ffffffffffffffffffffffffffffffffffffffff16815260200190815260200160002060000160019054906101000a900460ff16151503610476576040517f08c379a000000000000000000000000000000000000000000000000000000000815260040161046d90611cfd565b60405180910390fd5b60048054905081106104bd576040517f08c379a00000000000000000000000000000000000000000000000000000000081526004016104b490611d69565b60405180910390fd5b80600560003373ffffffffffffffffffffffffffffffffffffffff1673ffffffffffffffffffffffffffffffffffffffff168152602001908152602001600020600101819055506001600560003373ffffffffffffffffffffffffffffffffffffffff1673ffffffffffffffffffffffffffffffffffffffff16815260200190815260200160002060000160016101000a81548160ff0219169083151502179055506004818154811061057357610572611d89565b5b9060005260206000209060020201600101600081548092919061059590611de7565b9190505550600154600482815481106105b1576105b0611d89565b5b90600052602060002090600202016001015411156105d157806001819055505b7f4d99b957a2bc29a30ebd96a7be8e68fe50a3c701db28a91436490b7d53870ca43382604051610602929190611e2f565b60405180910390a150565b600560003373ffffffffffffffffffffffffffffffffffffffff1673ffffffffffffffffffffffffffffffffffffffff16815260200190815260200160002060000160009054906101000a900460ff1661069c576040517f08c379a000000000000000000000000000000000000000000000000000000000815260040161069390611bff565b60405180910390fd5b600160058111156106b0576106af6119b6565b5b600360009054906101000a900460ff1660058111156106d2576106d16119b6565b5b14610712576040517f08c379a000000000000000000000000000000000000000000000000000000000815260040161070990611ea4565b60405180910390fd5b60405160200161072190611eea565b60405160208183030381529060405280519060200120828260405160200161074a929190611f46565b60405160208183030381529060405280519060200120036107a0576040517f08c379a000000000000000000000000000000000000000000000000000000000815260040161079790611fdc565b60405180910390fd5b6107a861163c565b82828080601f016020809104026020016040519081016040528093929190818152602001838380828437600081840152601f19601f820116905080830192505050505050508160000181905250600481908060018154018082558091505060019003906000526020600020906002020160009091909190915060008201518160000190816108369190612237565b506020820151816001015550507f92e393e9b54e2f801d3ea4beb0c5e71a21cc34a5d34b77d0fb8a3aa1650dc18f60016004805490506108769190612309565b6040516108839190611ab6565b60405180910390a1505050565b6108986114f2565b600460058111156108ac576108ab6119b6565b5b600360009054906101000a900460ff1660058111156108ce576108cd6119b6565b5b1461090e576040517f08c379a0000000000000000000000000000000000000000000000000000000008152600401610905906123af565b60405180910390fd5b6005600360006101000a81548160ff02191690836005811115610934576109336119b6565b5b02179055507f0a97a4ee45751e2abf3e4fc8946939630b11b371ea8ae39ccdc3056e98f5cc3f6004600560405161096c9291906123cf565b60405180910390a1565b6060600560003373ffffffffffffffffffffffffffffffffffffffff1673ffffffffffffffffffffffffffffffffffffffff16815260200190815260200160002060000160009054906101000a900460ff16610a07576040517f08c379a00000000000000000000000000000000000000000000000000000000081526004016109fe90611bff565b60405180910390fd5b6004805480602002602001604051908101604052809291908181526020016000905b82821015610af75783829060005260206000209060020201604051806040016040529081600082018054610a5c9061205a565b80601f0160208091040260200160405190810160405280929190818152602001828054610a889061205a565b8015610ad55780601f10610aaa57610100808354040283529160200191610ad5565b820191906000526020600020905b815481529060010190602001808311610ab857829003601f168201915b5050505050815260200160018201548152505081526020019060010190610a29565b50505050905090565b610b086114f2565b610b126000611570565b565b60008060009054906101000a900473ffffffffffffffffffffffffffffffffffffffff16905090565b600360009054906101000a900460ff1681565b610b5861163c565b600560003373ffffffffffffffffffffffffffffffffffffffff1673ffffffffffffffffffffffffffffffffffffffff16815260200190815260200160002060000160009054906101000a900460ff16610be7576040517f08c379a0000000000000000000000000000000000000000000000000000000008152600401610bde90611bff565b60405180910390fd5b60048281548110610bfb57610bfa611d89565b5b9060005260206000209060020201604051806040016040529081600082018054610c249061205a565b80601f0160208091040260200160405190810160405280929190818152602001828054610c509061205a565b8015610c9d5780601f10610c7257610100808354040283529160200191610c9d565b820191906000526020600020905b815481529060010190602001808311610c8057829003601f168201915b505050505081526020016001820154815250509050919050565b610cbf6114f2565b60036005811115610cd357610cd26119b6565b5b600360009054906101000a900460ff166005811115610cf557610cf46119b6565b5b14610d35576040517f08c379a0000000000000000000000000000000000000000000000000000000008152600401610d2c90611c91565b60405180910390fd5b6004600360006101000a81548160ff02191690836005811115610d5b57610d5a6119b6565b5b02179055507f0a97a4ee45751e2abf3e4fc8946939630b11b371ea8ae39ccdc3056e98f5cc3f60036004604051610d939291906123cf565b60405180910390a1565b60015481565b60025481565b610db16114f2565b60006005811115610dc557610dc46119b6565b5b600360009054906101000a900460ff166005811115610de757610de66119b6565b5b14610e27576040517f08c379a0000000000000000000000000000000000000000000000000000000008152600401610e1e9061246a565b60405180910390fd5b6001600360006101000a81548160ff02191690836005811115610e4d57610e4c6119b6565b5b0217905550610e5a61163c565b6040518060400160405280600781526020017f47454e4553495300000000000000000000000000000000000000000000000000815250816000018190525060048190806001815401808255809150506001900390600052602060002090600202016000909190919091506000820151816000019081610ed99190612237565b506020820151816001015550507f0a97a4ee45751e2abf3e4fc8946939630b11b371ea8ae39ccdc3056e98f5cc3f60006001604051610f199291906123cf565b60405180910390a150565b610f2c6114f2565b60016005811115610f4057610f3f6119b6565b5b600360009054906101000a900460ff166005811115610f6257610f616119b6565b5b14610fa2576040517f08c379a0000000000000000000000000000000000000000000000000000000008152600401610f99906124fc565b60405180910390fd5b6002600360006101000a81548160ff02191690836005811115610fc857610fc76119b6565b5b02179055507f0a97a4ee45751e2abf3e4fc8946939630b11b371ea8ae39ccdc3056e98f5cc3f600160026040516110009291906123cf565b60405180910390a1565b611012611656565b600560003373ffffffffffffffffffffffffffffffffffffffff1673ffffffffffffffffffffffffffffffffffffffff1681526020019081526020016000206040518060600160405290816000820160009054906101000a900460ff161515151581526020016000820160019054906101000a900460ff16151515158152602001600182015481525050905090565b6110a9611656565b600560003373ffffffffffffffffffffffffffffffffffffffff1673ffffffffffffffffffffffffffffffffffffffff16815260200190815260200160002060000160009054906101000a900460ff16611138576040517f08c379a000000000000000000000000000000000000000000000000000000000815260040161112f90611bff565b60405180910390fd5b600560008373ffffffffffffffffffffffffffffffffffffffff1673ffffffffffffffffffffffffffffffffffffffff1681526020019081526020016000206040518060600160405290816000820160009054906101000a900460ff161515151581526020016000820160019054906101000a900460ff161515151581526020016001820154815250509050919050565b6111d16114f2565b600260058111156111e5576111e46119b6565b5b600360009054906101000a900460ff166005811115611207576112066119b6565b5b14611247576040517f08c379a000000000000000000000000000000000000000000000000000000000815260040161123e9061258e565b60405180910390fd5b60038060006101000a81548160ff0219169083600581111561126c5761126b6119b6565b5b02179055507f0a97a4ee45751e2abf3e4fc8946939630b11b371ea8ae39ccdc3056e98f5cc3f600260036040516112a49291906123cf565b60405180910390a1565b6112b66114f2565b600073ffffffffffffffffffffffffffffffffffffffff168173ffffffffffffffffffffffffffffffffffffffff1603611325576040517f08c379a000000000000000000000000000000000000000000000000000000000815260040161131c90612620565b60405180910390fd5b61132e81611570565b50565b6113396114f2565b6000600581111561134d5761134c6119b6565b5b600360009054906101000a900460ff16600581111561136f5761136e6119b6565b5b146113af576040517f08c379a00000000000000000000000000000000000000000000000000000000081526004016113a6906126b2565b60405180910390fd5b60011515600560008373ffffffffffffffffffffffffffffffffffffffff1673ffffffffffffffffffffffffffffffffffffffff16815260200190815260200160002060000160009054906101000a900460ff16151503611445576040517f08c379a000000000000000000000000000000000000000000000000000000000815260040161143c9061271e565b60405180910390fd5b6001600560008373ffffffffffffffffffffffffffffffffffffffff1673ffffffffffffffffffffffffffffffffffffffff16815260200190815260200160002060000160006101000a81548160ff021916908315150217905550600260008154809291906114b390611de7565b91905055507fb6be2187d059cc2a55fe29e0e503b566e1e0f8c8780096e185429350acffd3dd816040516114e7919061199b565b60405180910390a150565b6114fa611634565b73ffffffffffffffffffffffffffffffffffffffff16611518610b14565b73ffffffffffffffffffffffffffffffffffffffff161461156e576040517f08c379a00000000000000000000000000000000000000000000000000000000081526004016115659061278a565b60405180910390fd5b565b60008060009054906101000a900473ffffffffffffffffffffffffffffffffffffffff169050816000806101000a81548173ffffffffffffffffffffffffffffffffffffffff021916908373ffffffffffffffffffffffffffffffffffffffff1602179055508173ffffffffffffffffffffffffffffffffffffffff168173ffffffffffffffffffffffffffffffffffffffff167f8be0079c531659141344cd1fd0a4f28419497f9722a3daafe3b4186f6b6457e060405160405180910390a35050565b600033905090565b604051806040016040528060608152602001600081525090565b6040518060600160405280600015158152602001600015158152602001600081525090565b600080fd5b600080fd5b6000819050919050565b61169881611685565b81146116a357600080fd5b50565b6000813590506116b58161168f565b92915050565b6000602082840312156116d1576116d061167b565b5b60006116df848285016116a6565b91505092915050565b600080fd5b600080fd5b600080fd5b60008083601f84011261170d5761170c6116e8565b5b8235905067ffffffffffffffff81111561172a576117296116ed565b5b602083019150836001820283011115611746576117456116f2565b5b9250929050565b600080602083850312156117645761176361167b565b5b600083013567ffffffffffffffff81111561178257611781611680565b5b61178e858286016116f7565b92509250509250929050565b600081519050919050565b600082825260208201905092915050565b6000819050602082019050919050565b600081519050919050565b600082825260208201905092915050565b60005b838110156118005780820151818401526020810190506117e5565b60008484015250505050565b6000601f19601f8301169050919050565b6000611828826117c6565b61183281856117d1565b93506118428185602086016117e2565b61184b8161180c565b840191505092915050565b61185f81611685565b82525050565b60006040830160008301518482036000860152611882828261181d565b91505060208301516118976020860182611856565b508091505092915050565b60006118ae8383611865565b905092915050565b6000602082019050919050565b60006118ce8261179a565b6118d881856117a5565b9350836020820285016118ea856117b6565b8060005b85811015611926578484038952815161190785826118a2565b9450611912836118b6565b925060208a019950506001810190506118ee565b50829750879550505050505092915050565b6000602082019050818103600083015261195281846118c3565b905092915050565b600073ffffffffffffffffffffffffffffffffffffffff82169050919050565b60006119858261195a565b9050919050565b6119958161197a565b82525050565b60006020820190506119b0600083018461198c565b92915050565b7f4e487b7100000000000000000000000000000000000000000000000000000000600052602160045260246000fd5b600681106119f6576119f56119b6565b5b50565b6000819050611a07826119e5565b919050565b6000611a17826119f9565b9050919050565b611a2781611a0c565b82525050565b6000602082019050611a426000830184611a1e565b92915050565b60006040830160008301518482036000860152611a65828261181d565b9150506020830151611a7a6020860182611856565b508091505092915050565b60006020820190508181036000830152611a9f8184611a48565b905092915050565b611ab081611685565b82525050565b6000602082019050611acb6000830184611aa7565b92915050565b60008115159050919050565b611ae681611ad1565b82525050565b606082016000820151611b026000850182611add565b506020820151611b156020850182611add565b506040820151611b286040850182611856565b50505050565b6000606082019050611b436000830184611aec565b92915050565b611b528161197a565b8114611b5d57600080fd5b50565b600081359050611b6f81611b49565b92915050565b600060208284031215611b8b57611b8a61167b565b5b6000611b9984828501611b60565b91505092915050565b600082825260208201905092915050565b7f596f75277265206e6f74206120766f7465720000000000000000000000000000600082015250565b6000611be9601283611ba2565b9150611bf482611bb3565b602082019050919050565b60006020820190508181036000830152611c1881611bdc565b9050919050565b7f566f74696e672073657373696f6e20686176656e74207374617274656420796560008201527f7400000000000000000000000000000000000000000000000000000000000000602082015250565b6000611c7b602183611ba2565b9150611c8682611c1f565b604082019050919050565b60006020820190508181036000830152611caa81611c6e565b9050919050565b7f596f75206861766520616c726561647920766f74656400000000000000000000600082015250565b6000611ce7601683611ba2565b9150611cf282611cb1565b602082019050919050565b60006020820190508181036000830152611d1681611cda565b9050919050565b7f50726f706f73616c206e6f7420666f756e640000000000000000000000000000600082015250565b6000611d53601283611ba2565b9150611d5e82611d1d565b602082019050919050565b60006020820190508181036000830152611d8281611d46565b9050919050565b7f4e487b7100000000000000000000000000000000000000000000000000000000600052603260045260246000fd5b7f4e487b7100000000000000000000000000000000000000000000000000000000600052601160045260246000fd5b6000611df282611685565b91507fffffffffffffffffffffffffffffffffffffffffffffffffffffffffffffffff8203611e2457611e23611db8565b5b600182019050919050565b6000604082019050611e44600083018561198c565b611e516020830184611aa7565b9392505050565b7f50726f706f73616c7320617265206e6f7420616c6c6f77656420796574000000600082015250565b6000611e8e601d83611ba2565b9150611e9982611e58565b602082019050919050565b60006020820190508181036000830152611ebd81611e81565b9050919050565b50565b6000611ed4600083611ba2565b9150611edf82611ec4565b600082019050919050565b60006020820190508181036000830152611f0381611ec7565b9050919050565b82818337600083830152505050565b6000611f258385611ba2565b9350611f32838584611f0a565b611f3b8361180c565b840190509392505050565b60006020820190508181036000830152611f61818486611f19565b90509392505050565b7f566f7573206e6520706f7576657a20706173206e65207269656e2070726f706f60008201527f7365720000000000000000000000000000000000000000000000000000000000602082015250565b6000611fc6602383611ba2565b9150611fd182611f6a565b604082019050919050565b60006020820190508181036000830152611ff581611fb9565b9050919050565b7f4e487b7100000000000000000000000000000000000000000000000000000000600052604160045260246000fd5b7f4e487b7100000000000000000000000000000000000000000000000000000000600052602260045260246000fd5b6000600282049050600182168061207257607f821691505b6020821081036120855761208461202b565b5b50919050565b60008190508160005260206000209050919050565b60006020601f8301049050919050565b600082821b905092915050565b6000600883026120ed7fffffffffffffffffffffffffffffffffffffffffffffffffffffffffffffffff826120b0565b6120f786836120b0565b95508019841693508086168417925050509392505050565b6000819050919050565b600061213461212f61212a84611685565b61210f565b611685565b9050919050565b6000819050919050565b61214e83612119565b61216261215a8261213b565b8484546120bd565b825550505050565b600090565b61217761216a565b612182818484612145565b505050565b5b818110156121a65761219b60008261216f565b600181019050612188565b5050565b601f8211156121eb576121bc8161208b565b6121c5846120a0565b810160208510156121d4578190505b6121e86121e0856120a0565b830182612187565b50505b505050565b600082821c905092915050565b600061220e600019846008026121f0565b1980831691505092915050565b600061222783836121fd565b9150826002028217905092915050565b612240826117c6565b67ffffffffffffffff81111561225957612258611ffc565b5b612263825461205a565b61226e8282856121aa565b600060209050601f8311600181146122a1576000841561228f578287015190505b612299858261221b565b865550612301565b601f1984166122af8661208b565b60005b828110156122d7578489015182556001820191506020850194506020810190506122b2565b868310156122f457848901516122f0601f8916826121fd565b8355505b6001600288020188555050505b505050505050565b600061231482611685565b915061231f83611685565b925082820390508181111561233757612336611db8565b5b92915050565b7f43757272656e7420737461747573206973206e6f7420766f74696e672073657360008201527f73696f6e20656e64656400000000000000000000000000000000000000000000602082015250565b6000612399602a83611ba2565b91506123a48261233d565b604082019050919050565b600060208201905081810360008301526123c88161238c565b9050919050565b60006040820190506123e46000830185611a1e565b6123f16020830184611a1e565b9392505050565b7f5265676973746572696e672070726f706f73616c732063616e7420626520737460008201527f6172746564206e6f770000000000000000000000000000000000000000000000602082015250565b6000612454602983611ba2565b915061245f826123f8565b604082019050919050565b6000602082019050818103600083015261248381612447565b9050919050565b7f5265676973746572696e672070726f706f73616c7320686176656e742073746160008201527f7274656420796574000000000000000000000000000000000000000000000000602082015250565b60006124e6602883611ba2565b91506124f18261248a565b604082019050919050565b60006020820190508181036000830152612515816124d9565b9050919050565b7f5265676973746572696e672070726f706f73616c73207068617365206973206e60008201527f6f742066696e6973686564000000000000000000000000000000000000000000602082015250565b6000612578602b83611ba2565b91506125838261251c565b604082019050919050565b600060208201905081810360008301526125a78161256b565b9050919050565b7f4f776e61626c653a206e6577206f776e657220697320746865207a65726f206160008201527f6464726573730000000000000000000000000000000000000000000000000000602082015250565b600061260a602683611ba2565b9150612615826125ae565b604082019050919050565b60006020820190508181036000830152612639816125fd565b9050919050565b7f566f7465727320726567697374726174696f6e206973206e6f74206f70656e2060008201527f7965740000000000000000000000000000000000000000000000000000000000602082015250565b600061269c602383611ba2565b91506126a782612640565b604082019050919050565b600060208201905081810360008301526126cb8161268f565b9050919050565b7f416c726561647920726567697374657265640000000000000000000000000000600082015250565b6000612708601283611ba2565b9150612713826126d2565b602082019050919050565b60006020820190508181036000830152612737816126fb565b9050919050565b7f4f776e61626c653a2063616c6c6572206973206e6f7420746865206f776e6572600082015250565b6000612774602083611ba2565b915061277f8261273e565b602082019050919050565b600060208201905081810360008301526127a381612767565b905091905056fea26469706673582212203c5bfb0aa94220ae73688269488adea8b627d86311799020529d4065a340171964736f6c63430008120033",
  "immutableReferences": {},
  "source": "// SPDX-License-Identifier: MIT\r\n\r\npragma solidity 0.8.18;\r\nimport \"@openzeppelin/contracts/access/Ownable.sol\";\r\n\r\ncontract Voting is Ownable {\r\n    uint256 public winningProposalID;\r\n    uint256 public nbVoters;\r\n\r\n    struct Voter {\r\n        bool isRegistered;\r\n        bool hasVoted;\r\n        uint256 votedProposalId;\r\n    }\r\n\r\n    struct Proposal {\r\n        string description;\r\n        uint256 voteCount;\r\n    }\r\n\r\n    enum WorkflowStatus {\r\n        RegisteringVoters,\r\n        ProposalsRegistrationStarted,\r\n        ProposalsRegistrationEnded,\r\n        VotingSessionStarted,\r\n        VotingSessionEnded,\r\n        VotesTallied\r\n    }\r\n\r\n    WorkflowStatus public workflowStatus;\r\n    Proposal[] proposalsArray;\r\n    mapping(address => Voter) voters;\r\n\r\n    event VoterRegistered(address voterAddress);\r\n    event WorkflowStatusChange(\r\n        WorkflowStatus previousStatus,\r\n        WorkflowStatus newStatus\r\n    );\r\n    event ProposalRegistered(uint256 proposalId);\r\n    event Voted(address voter, uint256 proposalId);\r\n\r\n    modifier onlyVoters() {\r\n        require(voters[msg.sender].isRegistered, \"You're not a voter\");\r\n        _;\r\n    }\r\n\r\n    // on peut faire un modifier pour les tats\r\n\r\n    // ::::::::::::: GETTERS ::::::::::::: //\r\n\r\n    function myself() external view returns (Voter memory) {\r\n        return voters[msg.sender];\r\n    }\r\n\r\n    function getVoter(\r\n        address _addr\r\n    ) external view onlyVoters returns (Voter memory) {\r\n        return voters[_addr];\r\n    }\r\n\r\n    function getOneProposal(\r\n        uint256 _id\r\n    ) external view onlyVoters returns (Proposal memory) {\r\n        return proposalsArray[_id];\r\n    }\r\n\r\n    /**\r\n     * @notice Get list of proposals\r\n     * @dev Getter on proposal array\r\n     * @return Proposal[] proposalsArray\r\n     */\r\n    function getProposals()\r\n        external\r\n        view\r\n        onlyVoters\r\n        returns (Proposal[] memory)\r\n    {\r\n        return proposalsArray;\r\n    }\r\n\r\n    // ::::::::::::: REGISTRATION ::::::::::::: //\r\n\r\n    function addVoter(address _addr) external onlyOwner {\r\n        require(\r\n            workflowStatus == WorkflowStatus.RegisteringVoters,\r\n            \"Voters registration is not open yet\"\r\n        );\r\n        require(voters[_addr].isRegistered != true, \"Already registered\");\r\n\r\n        voters[_addr].isRegistered = true;\r\n        nbVoters++;\r\n        emit VoterRegistered(_addr);\r\n    }\r\n\r\n    // ::::::::::::: PROPOSAL ::::::::::::: //\r\n\r\n    function addProposal(string calldata _desc) external onlyVoters {\r\n        require(\r\n            workflowStatus == WorkflowStatus.ProposalsRegistrationStarted,\r\n            \"Proposals are not allowed yet\"\r\n        );\r\n        require(\r\n            keccak256(abi.encode(_desc)) != keccak256(abi.encode(\"\")),\r\n            \"Vous ne pouvez pas ne rien proposer\"\r\n        ); // facultatif\r\n        // voir que desc est different des autres\r\n\r\n        Proposal memory proposal;\r\n        proposal.description = _desc;\r\n        proposalsArray.push(proposal);\r\n        emit ProposalRegistered(proposalsArray.length - 1);\r\n    }\r\n\r\n    // ::::::::::::: VOTE ::::::::::::: //\r\n\r\n    function setVote(uint256 _id) external onlyVoters {\r\n        require(\r\n            workflowStatus == WorkflowStatus.VotingSessionStarted,\r\n            \"Voting session havent started yet\"\r\n        );\r\n        require(voters[msg.sender].hasVoted != true, \"You have already voted\");\r\n        require(_id < proposalsArray.length, \"Proposal not found\"); // pas oblig, et pas besoin du >0 car uint\r\n        \r\n        voters[msg.sender].votedProposalId = _id;\r\n        voters[msg.sender].hasVoted = true;\r\n        proposalsArray[_id].voteCount++;\r\n\r\n        if (proposalsArray[_id].voteCount > winningProposalID) {\r\n            winningProposalID = _id;\r\n        }\r\n        emit Voted(msg.sender, _id);\r\n    }\r\n\r\n    // ::::::::::::: STATE ::::::::::::: //\r\n\r\n    function startProposalsRegistering() external onlyOwner {\r\n        require(\r\n            workflowStatus == WorkflowStatus.RegisteringVoters,\r\n            \"Registering proposals cant be started now\"\r\n        );\r\n        workflowStatus = WorkflowStatus.ProposalsRegistrationStarted;\r\n\r\n        Proposal memory proposal;\r\n        proposal.description = \"GENESIS\";\r\n        proposalsArray.push(proposal);\r\n\r\n        emit WorkflowStatusChange(\r\n            WorkflowStatus.RegisteringVoters,\r\n            WorkflowStatus.ProposalsRegistrationStarted\r\n        );\r\n    }\r\n\r\n    function endProposalsRegistering() external onlyOwner {\r\n        require(\r\n            workflowStatus == WorkflowStatus.ProposalsRegistrationStarted,\r\n            \"Registering proposals havent started yet\"\r\n        );\r\n        workflowStatus = WorkflowStatus.ProposalsRegistrationEnded;\r\n        emit WorkflowStatusChange(\r\n            WorkflowStatus.ProposalsRegistrationStarted,\r\n            WorkflowStatus.ProposalsRegistrationEnded\r\n        );\r\n    }\r\n\r\n    function startVotingSession() external onlyOwner {\r\n        require(\r\n            workflowStatus == WorkflowStatus.ProposalsRegistrationEnded,\r\n            \"Registering proposals phase is not finished\"\r\n        );\r\n        workflowStatus = WorkflowStatus.VotingSessionStarted;\r\n        emit WorkflowStatusChange(\r\n            WorkflowStatus.ProposalsRegistrationEnded,\r\n            WorkflowStatus.VotingSessionStarted\r\n        );\r\n    }\r\n\r\n    function endVotingSession() external onlyOwner {\r\n        require(\r\n            workflowStatus == WorkflowStatus.VotingSessionStarted,\r\n            \"Voting session havent started yet\"\r\n        );\r\n        workflowStatus = WorkflowStatus.VotingSessionEnded;\r\n        emit WorkflowStatusChange(\r\n            WorkflowStatus.VotingSessionStarted,\r\n            WorkflowStatus.VotingSessionEnded\r\n        );\r\n    }\r\n\r\n    function tallyVotes() external onlyOwner {\r\n        require(\r\n            workflowStatus == WorkflowStatus.VotingSessionEnded,\r\n            \"Current status is not voting session ended\"\r\n        );\r\n        workflowStatus = WorkflowStatus.VotesTallied;\r\n        emit WorkflowStatusChange(\r\n            WorkflowStatus.VotingSessionEnded,\r\n            WorkflowStatus.VotesTallied\r\n        );\r\n    }\r\n}\r\n",
  "sourcePath": "D:\\dev_blockchain\\alyra\\projects\\project3\\truffle\\contracts\\Voting.sol",
  "compiler": {
    "name": "solc",
    "version": "0.8.18+commit.87f61d96.Emscripten.clang"
  },
  "schemaVersion": "3.4.13",
  "updatedAt": "2023-03-18T21:25:27.436Z",
  "networkType": "ethereum",
  "devdoc": {
    "kind": "dev",
    "methods": {
      "getProposals()": {
        "details": "Getter on proposal array",
        "returns": {
          "_0": "Proposal[] proposalsArray"
        }
      },
      "owner()": {
        "details": "Returns the address of the current owner."
      },
      "renounceOwnership()": {
        "details": "Leaves the contract without owner. It will not be possible to call `onlyOwner` functions anymore. Can only be called by the current owner. NOTE: Renouncing ownership will leave the contract without an owner, thereby removing any functionality that is only available to the owner."
      },
      "transferOwnership(address)": {
        "details": "Transfers ownership of the contract to a new account (`newOwner`). Can only be called by the current owner."
      }
    },
    "version": 1
  },
  "userdoc": {
    "kind": "user",
    "methods": {
      "getProposals()": {
        "notice": "Get list of proposals"
      }
    },
    "version": 1
  }
}